:100000000C9462000C948A000C948A000C948A0070
:100010000C948A000C948A000C948A000C948A0038
:100020000C948A000C948A000C948A000C948A0028
:100030000C948A000C948A000C948A000C948A0018
:100040000C9433020C948A000C94A3020C947D024D
:100050000C948A000C948A000C948A000C948A00F8
:100060000C948A000C948A000000000023002600F3
:10007000290000000000240027002A0000000000E2
:10008000250028002B0004040404040404040202D4
:100090000202020203030303030301020408102007
:1000A0004080010204081020010204081020000012
:1000B0000008000201000003040700000000000027
:1000C0000000110411241FBECFEFD8E0DEBFCDBF6A
:1000D00011E0A0E0B1E0EAE9FEE002C005900D9277
:1000E000A832B107D9F721E0A8E2B1E001C01D9222
:1000F000AE3CB207E1F710E0C2E6D0E004C02197C1
:10010000FE010E946004C136D107C9F70E94D502E2
:100110000C944B070C940000833081F028F481305C
:1001200099F08230A9F008958730A9F08830C9F09D
:100130008430B1F4809180008F7D03C08091800075
:100140008F7780938000089584B58F7784BD08955C
:1001500084B58F7DFBCF8091B0008F778093B00006
:1001600008958091B0008F7DF9CF1F93CF93DF93D7
:10017000282F30E0F901E255FF4F8491F901E6564E
:10018000FF4FD491F901EA57FF4FC491CC23A9F056
:10019000162F81110E948C00EC2FF0E0EE0FFF1F54
:1001A000E458FF4FA591B4918FB7F894EC911111D9
:1001B00008C0D095DE23DC938FBFDF91CF911F91D4
:1001C0000895DE2BF8CFCF93DF9390E0FC01E65645
:1001D000FF4F24918A579F4FFC0184918823D1F0CF
:1001E00090E0880F991FFC01EE58FF4FA591B49144
:1001F000FC01E458FF4FC591D491623071F49FB770
:10020000F8943C91822F809583238C93E8812E2B48
:1002100028839FBFDF91CF9108958FB7F894EC9119
:100220002E2B2C938FBFF6CF8E50806480937C0052
:1002300080917A00806480937A0080917A0086FDB4
:10024000FCCF80917800909179000895AF92BF9291
:10025000CF92DF92EF92FF920F931F93CF93DF9392
:100260006C017B018B01040F151FEB015E01AE18C1
:10027000BF08C017D10759F06991D601ED91FC91E3
:100280000190F081E02DC6010995892B79F7C50110
:10029000DF91CF911F910F91FF90EF90DF90CF9062
:1002A000BF90AF900895FC01538D448D252F30E011
:1002B000842F90E0821B930B541710F0CF96089573
:1002C00001970895FC01918D828D981761F0A28DA0
:1002D000AE0FBF2FB11D5D968C91928D9F5F9F7366
:1002E000928F90E008958FEF9FEF0895FC01918D1C
:1002F000828D981731F0828DE80FF11D858D90E089
:1003000008958FEF9FEF0895FC01918D228D892F25
:1003100090E0805C9F4F821B91098F73992708950D
:1003200088E291E00E94840121E0892B09F420E019
:10033000822F089580E090E0892B29F00E9490019F
:1003400081110C9400000895FC01A48DA80FB92F11
:10035000B11DA35ABF4F2C91848D90E001968F73ED
:100360009927848FA689B7892C93A089B1898C910C
:10037000837080648C93938D848D981306C002885B
:10038000F389E02D80818F7D80830895EF92FF9225
:100390000F931F93CF93DF93EC0181E0888F9B8DA8
:1003A0008C8D98131AC0E889F989808185FF15C062
:1003B0009FB7F894EE89FF896083E889F989808185
:1003C0008370806480839FBF81E090E0DF91CF9154
:1003D0001F910F91FF90EF900895F62E0B8D10E076
:1003E0000F5F1F4F0F731127E02E8C8D8E110CC0E5
:1003F0000FB607FCFACFE889F989808185FFF5CF30
:10040000CE010E94A401F1CFEB8DEC0FFD2FF11D69
:10041000E35AFF4FF0829FB7F8940B8FEA89FB896C
:1004200080818062CFCFCF93DF93EC01888D8823CA
:10043000B9F0AA89BB89E889F9898C9185FD03C047
:10044000808186FD0DC00FB607FCF7CF8C9185FF2C
:10045000F2CF808185FFEDCFCE010E94A401E9CFCC
:10046000DF91CF9108951F920F920FB60F92112432
:100470002F933F938F939F93AF93BF938091CA0124
:100480009091CB01A091CC01B091CD013091C901E7
:1004900023E0230F2D3758F50196A11DB11D2093A0
:1004A000C9018093CA019093CB01A093CC01B09372
:1004B000CD018091C5019091C601A091C701B09175
:1004C000C8010196A11DB11D8093C5019093C6017D
:1004D000A093C701B093C801BF91AF919F918F9135
:1004E0003F912F910F900FBE0F901F90189526E807
:1004F000230F0296A11DB11DD2CF1F920F920FB6EE
:100500000F9211242F933F934F935F936F937F9399
:100510008F939F93AF93BF93EF93FF9388E291E004
:100520000E94A401FF91EF91BF91AF919F918F9194
:100530007F916F915F914F913F912F910F900FBEDF
:100540000F901F9018951F920F920FB60F921124C3
:100550002F938F939F93EF93FF93E0913801F09146
:1005600039018081E0913E01F0913F0182FD1BC085
:100570009081809141018F5F8F732091420182179A
:1005800041F0E0914101F0E0E85DFE4F958F8093EE
:100590004101FF91EF919F918F912F910F900FBE8D
:1005A0000F901F9018958081F4CFCF93DF93CDB734
:1005B000DEB7E2970FB6F894DEBF0FBECDBF7894DA
:1005C00084B5826084BD84B5816084BD85B5826058
:1005D00085BD85B5816085BD80916E008160809309
:1005E0006E00109281008091810082608093810072
:1005F0008091810081608093810080918000816082
:10060000809380008091B10084608093B1008091DC
:10061000B00081608093B00080917A008460809304
:100620007A0080917A00826080937A0080917A00CB
:10063000816080937A0080917A00806880937A004C
:100640001092C10062E082E00E94E30061E08DE070
:100650000E94E30061E08CE00E94E300E091380139
:10066000F091390182E08083E0913801F091390105
:100670001082E0913401F09135011082E091360151
:10068000F091370180E1808310924001E0913C01BC
:10069000F0913D0186E08083E0913A01F0913B01C9
:1006A000808180618083E0913A01F0913B018081FB
:1006B00088608083E0913A01F0913B0180818068FD
:1006C0008083E0913A01F0913B0180818F7D8083AE
:1006D00098EE492E93E0592E612C712C812C22E04A
:1006E000922E32E1232E31E0332ECE0101965C01B1
:1006F0008EE00E9414017C018FE00E9414016C01C5
:10070000E0EBF0E08491ECE9F0E00491E8E8F0E05F
:1007100014911123F9F081110E948C00E12FF0E077
:10072000EE0FFF1FE859FF4FA591B4918C9108235C
:1007300091E080E009F490E0092F182FF1E0EF1626
:10074000F2E0FF0654F08AE0E81682E0F80654F082
:1007500020E028C010E000E0F1CFC4018E199F090D
:100760000A97B4F791E0C91692E0D9060CF452C08A
:10077000EAE0CE16E2E0DE065CF72FB7F89460916F
:10078000CA017091CB018091CC019091CD012FBF16
:10079000A30192010E943E0421E0643671058105A7
:1007A0009105B0F6622F8CE00E94B500B801F1E02F
:1007B0006F278DE00E94B5001F930F93DF92CF92B9
:1007C000FF92EF923F922F921F9282E38F93BF92FC
:1007D000AF920E946604F50101900020E9F731977D
:1007E000AF014A195B09B50188E291E00E94260138
:1007F0000FB6F894DEBF0FBECDBF80E090E0892B2E
:1008000009F476CF0E949001882309F471CF0E94E9
:1008100000006ECFC4018C199D090A970CF098CF87
:10082000ACCFE8E2F1E01382128288EE93E0A0E020
:10083000B0E084839583A683B78384E091E09183BD
:10084000808385EC90E09587848784EC90E097879F
:10085000868780EC90E0918B808B81EC90E0938B8D
:10086000828B82EC90E0958B848B86EC90E0978B6A
:10087000868B118E128E138E148E0895A1E21A2E7D
:10088000AA1BBB1BFD010DC0AA1FBB1FEE1FFF1F34
:10089000A217B307E407F50720F0A21BB30BE40B84
:1008A000F50B661F771F881F991F1A9469F76095CB
:1008B0007095809590959B01AC01BD01CF01089585
:1008C000EE0FFF1F0590F491E02D0994AEE0B0E02B
:1008D000ECE6F4E00C9422070D891E898F89988D2F
:1008E00026E02C831A83098397FF02C080E090E8FA
:1008F00001979E838D83AE01455E5F4F698D7A8D32
:10090000CE0101960E9496044D815E8157FD0AC07A
:100910002F813885421753070CF49A01020F131FD9
:10092000F80110822E96E4E00C943E07ABE0B0E0B4
:10093000ECE9F4E00C9414077C013B018A01FC0112
:1009400017821682838181FFC8C1CE0101965C01A6
:10095000F7019381F30193FD859193FF81913F010D
:10096000882309F453C1853239F493FD859193FFAF
:1009700081913F01853229F4B70190E00E948606FB
:10098000E7CF912C212C312CFFE1F31538F08B327D
:1009900011F190F4803209F1833229F137FC3CC027
:1009A00020ED280F2A3050F536FE20C08AE0989EB0
:1009B000200D1124922E06C08D3291F0803371F7F4
:1009C000689430F8F30193FD859193FF81913F0185
:1009D0008111DACF21C0689431F8689432F8F2CFEF
:1009E000689433F8EFCF689434F8ECCFEAE02E9EA9
:1009F000200D1124222E689435F8E4CF8E3229F48C
:100A000036FC04C1689436F8DDCF8C3619F468944E
:100A100037F8D8CF8836B1F2982F9F7D9554933010
:100A2000E0F08336A1F18337C1F1833509F063C06B
:100A30002801F2E04F0E511CF801C080D180692DD1
:100A400070E036FC02C06FEF7FEFC6010E947006B7
:100A50004C01689437F882010AC00C5F1F4FFFE316
:100A6000F98388248394912C6501E89437F833FE48
:100A70002DC0522C8114910471F5552009F468CFD2
:100A8000B70180E290E00E9486065A94F6CFF80102
:100A9000808189830E5F1F4FE4CF2801F2E04F0E63
:100AA000511CF801C080D180692D70E036FC02C075
:100AB0006FEF7FEFC6010E947B064C018201D5CF0C
:100AC000B70180E290E00E9486062A942814190457
:100AD00009F0B0F7CECFF60137FC859137FE819152
:100AE0006F01B70190E00E94860651105A94F1E020
:100AF0008F1A9108BFCF843619F0893609F077C074
:100B0000F80137FE6BC060817181828193810C5F37
:100B10001F4FF32DFF763F2E97FF09C090958095CC
:100B2000709561957F4F8F4F9F4F689437F82AE0FB
:100B300030E0A5010E94B606C82ECA188C2C432CA2
:100B400036FE0CC0E89440F8C91440F434FE05C0E9
:100B500032FC03C0F32DFE7E4F2E892C44FE95C03F
:100B6000FE01EC0DF11D8081803309F087C0242D3A
:100B7000297E422E842D8870582E43FC95C040FE5D
:100B80008FC09C2C821418F42C0C922C981844FEC4
:100B900091C0B70180E390E00E94860642FE09C042
:100BA00088E790E041FE02C088E590E0B7010E942E
:100BB0008606C91408F48AC0CA94D12C9FEFC91ABA
:100BC000D90ACA0CDB1CF60182916F01B70190E0D3
:100BD0000E948606AC14BD04B1F74FCF60817181CD
:100BE000072E000C880B990B0E5F1F4F92CFD32C52
:100BF000E894D4F82AE030E0853739F1232D297FB5
:100C0000D22E8F3601F148F48835A9F0F70186819C
:100C100097812B96E2E10C943007803749F08837B2
:100C2000A9F7D4FE02C06894D2F820E130E00DC0EC
:100C30006894D4F8F6CF34FE03C0822F8660D82E95
:100C400020E132E002C028E030E0F801D7FE0FC01A
:100C500060817181828193810C5F1F4FA5010E9489
:100C6000B606C82ECA183D2CE89437F867CF6081C5
:100C7000718190E080E00E5F1F4FF0CF42FC02C018
:100C8000839478CF8394839475CF842D867809F4E8
:100C900071CFF6CFB70180E290E00E948606839480
:100CA0008214C0F3512C73CF522C5818821408F4BC
:100CB0006ECFF8CF842D867809F47BCF8BE241FE8E
:100CC00080E247FC8DE2B70190E071CFB70180E38D
:100CD00090E00E9486069A946CCF8FEF9FEF99CF99
:100CE000FC010590615070400110D8F780959095F7
:100CF0008E0F9F1F0895FC016150704001900110FC
:100D0000D8F7809590958E0F9F1F08950F931F938E
:100D1000CF93DF93182F092FEB018B8181FD09C041
:100D20001FEF0FEF812F902FDF91CF911F910F9128
:100D3000089582FF14C02E813F818C819D812817E8
:100D400039073CF4E881F981CF01019699838883C2
:100D500010838E819F8101969F838E83E3CFE885E8
:100D6000F985812F0995892BA1F3DACFFA01AA27FA
:100D7000283051F1203181F1E8946F936E7F6E5FDE
:100D80007F4F8F4F9F4FAF4FB1E03ED0B4E03CD08C
:100D9000670F781F891F9A1FA11D680F791F8A1F6F
:100DA000911DA11D6A0F711D811D911DA11D20D0D6
:100DB00009F468943F912AE0269F11243019305D90
:100DC0003193DEF6CF010895462F4770405D419381
:100DD000B3E00FD0C9F7F6CF462F4F70405D4A33CE
:100DE00018F0495D31FD4052419302D0A9F7EACF96
:100DF000B4E0A6959795879577956795BA95C9F7C5
:100E000000976105710508959B01AC010A2E0694B7
:100E10005795479537952795BA95C9F7620F731F70
:100E2000841F951FA01D08952F923F924F925F92AD
:100E30006F927F928F929F92AF92BF92CF92DF92EA
:100E4000EF92FF920F931F93CF93DF93CDB7DEB74F
:100E5000CA1BDB0B0FB6F894DEBF0FBECDBF0994E3
:100E60002A88398848885F846E847D848C849B843A
:100E7000AA84B984C884DF80EE80FD800C811B8148
:100E8000AA81B981CE0FD11D0FB6F894DEBF0FBE77
:0A0E9000CDBFED010895F894FFCFE7
:100E9A0000000000C6012601530113028401620109
:100EAA007601583A2025642C20593A2025642C20B2
:080EBA0053573A2025640A0099
:00000001FF
